{
  "contractName": "SunFlowerSeedToken",
  "abi": [
    {
      "inputs": [],
      "name": "decimals",
      "outputs": [
        {
          "internalType": "uint8",
          "name": "",
          "type": "uint8"
        }
      ],
      "stateMutability": "view",
      "type": "function",
      "constant": true
    },
    {
      "inputs": [],
      "name": "isSummerOver",
      "outputs": [
        {
          "internalType": "bool",
          "name": "",
          "type": "bool"
        }
      ],
      "stateMutability": "view",
      "type": "function",
      "constant": true
    },
    {
      "inputs": [],
      "name": "name",
      "outputs": [
        {
          "internalType": "string",
          "name": "",
          "type": "string"
        }
      ],
      "stateMutability": "view",
      "type": "function",
      "constant": true
    },
    {
      "inputs": [],
      "name": "symbol",
      "outputs": [
        {
          "internalType": "string",
          "name": "",
          "type": "string"
        }
      ],
      "stateMutability": "view",
      "type": "function",
      "constant": true
    },
    {
      "inputs": [],
      "name": "totalSupply",
      "outputs": [
        {
          "internalType": "uint256",
          "name": "",
          "type": "uint256"
        }
      ],
      "stateMutability": "view",
      "type": "function",
      "constant": true
    }
  ],
  "bytecode": "0x60806040526040518060400160405280601581526020017f53756e20466c6f776572205365656420546f6b656e00000000000000000000008152506000908051906020019061004f9291906100f3565b506040518060400160405280600481526020017f53465354000000000000000000000000000000000000000000000000000000008152506001908051906020019061009b9291906100f3565b5069d3c21bcecceda10000006002556012600360006101000a81548160ff021916908360ff1602179055506001600360016101000a81548160ff0219169083151502179055503480156100ed57600080fd5b5061019e565b828054600181600116156101000203166002900490600052602060002090601f0160209004810192826101295760008555610170565b82601f1061014257805160ff1916838001178555610170565b82800160010185558215610170579182015b8281111561016f578251825591602001919060010190610154565b5b50905061017d9190610181565b5090565b5b8082111561019a576000816000905550600101610182565b5090565b61035f806101ad6000396000f3fe608060405234801561001057600080fd5b50600436106100575760003560e01c806306fdde031461005c57806318160ddd146100df578063313ce567146100fd57806395d89b411461011e578063be0e844f146101a1575b600080fd5b6100646101c1565b6040518080602001828103825283818151815260200191508051906020019080838360005b838110156100a4578082015181840152602081019050610089565b50505050905090810190601f1680156100d15780820380516001836020036101000a031916815260200191505b509250505060405180910390f35b6100e761025f565b6040518082815260200191505060405180910390f35b610105610265565b604051808260ff16815260200191505060405180910390f35b610126610278565b6040518080602001828103825283818151815260200191508051906020019080838360005b8381101561016657808201518184015260208101905061014b565b50505050905090810190601f1680156101935780820380516001836020036101000a031916815260200191505b509250505060405180910390f35b6101a9610316565b60405180821515815260200191505060405180910390f35b60008054600181600116156101000203166002900480601f0160208091040260200160405190810160405280929190818152602001828054600181600116156101000203166002900480156102575780601f1061022c57610100808354040283529160200191610257565b820191906000526020600020905b81548152906001019060200180831161023a57829003601f168201915b505050505081565b60025481565b600360009054906101000a900460ff1681565b60018054600181600116156101000203166002900480601f01602080910402602001604051908101604052809291908181526020018280546001816001161561010002031660029004801561030e5780601f106102e35761010080835404028352916020019161030e565b820191906000526020600020905b8154815290600101906020018083116102f157829003601f168201915b505050505081565b600360019054906101000a900460ff168156fea2646970667358221220f43e98f2af941dc21b94b3e2fa339d29f23aee23180d088e623dba013dd5a1d264736f6c63430007060033",
  "immutableReferences": {},
  "source": "pragma solidity >=0.7.0 <0.9.0;\r\n\r\ncontract SunFlowerSeedToken {\r\n  string public name = 'Sun Flower Seed Token';\r\n  string public symbol = 'SFST';\r\n  uint256 public totalSupply = 1000000000000000000000000; // 10 millions\r\n  uint8 public decimals = 18;\r\n  bool public isSummerOver = true;\r\n}\r\n",
  "sourcePath": "E:\\DApps\\def-staked-app\\src\\contracts\\SunFlowerSeedToken.sol",
  "compiler": {
    "name": "solc",
    "version": "0.7.6+commit.7338295f.Emscripten.clang"
  },
  "schemaVersion": "3.4.3",
  "updatedAt": "2021-09-18T13:30:37.395Z",
  "networkType": "ethereum",
  "devdoc": {
    "kind": "dev",
    "methods": {},
    "version": 1
  },
  "userdoc": {
    "kind": "user",
    "methods": {},
    "version": 1
  }
}